:10000000D2A0D2A1D2A2D2A3110C80FCE52BB400C5
:100010000280022102C2A420A014E52875F0048405
:10002000E5F0B40009E5282401F528752B0020A18E
:1000300014E52975F00484E5F0B40009E5292401EC
:10004000F529752B0020A218E52A75F00484E5F047
:10005000B4000DE52A2401F52A752B00D2A4C2A50F
:1000600020A016E528030375F00484E5F0B4000928
:10007000E5282404F528752B0020A116E5290303A3
:1000800075F00484E5F0B40009E5292404F5297528
:100090002B0020A21AE52A030375F00484E5F0B4CE
:1000A000000DE52A2404F52A752B00D2A5C2A6204E
:1000B000A018E5280303030375F00484E5F0B400F9
:1000C00009E5282410F528752B0020A118E529033F
:1000D00003030375F00484E5F0B40009E529241056
:1000E000F529752B0020A218E52A0303030375F0F8
:1000F0000484E5F0B40009E52A2410F52A752B00E4
:03010000D2A62262
:00000001FF
