:10000000D2A0D2A1D2A2D2A3110C80FCE52BB400C5
:100010000280022102C2A420A014E52875F0048405
:10002000E5F0B40009E5282401F52885002B20A17E
:1000300014E52975F00484E5F0B40009E5292401EC
:10004000F52985002B20A218E52A75F00484E5F037
:10005000B4000DE52A2401F52A85002BD2A4C2A5FF
:1000600020A016E528030375F00484E5F0B4000928
:10007000E5282404F52885002B20A116E529030393
:1000800075F00484E5F0B40009E5292404F5298518
:10009000002B20A21AE52A030375F00484E5F0B4CE
:1000A000000DE52A2404F52A85002BD2A5C2A6203E
:1000B000A018E5280303030375F00484E5F0B400F9
:1000C00009E5282410F52885002B20A118E529032F
:1000D00003030375F00484E5F0B40009E529241056
:1000E000F52985002B20A218E52A0303030375F0E8
:1000F0000484E5F0B40009E52A2410F52A85002BD4
:03010000D2A62262
:00000001FF
